{
  "_format": "hh-sol-artifact-1",
  "contractName": "OrgGovernance",
  "sourceName": "contracts/ctc/OrgGovernance.sol",
  "abi": [
    {
      "inputs": [],
      "stateMutability": "nonpayable",
      "type": "constructor"
    },
    {
      "anonymous": false,
      "inputs": [
        {
          "indexed": true,
          "internalType": "address",
          "name": "previousOwner",
          "type": "address"
        },
        {
          "indexed": true,
          "internalType": "address",
          "name": "newOwner",
          "type": "address"
        }
      ],
      "name": "OwnershipTransferred",
      "type": "event"
    },
    {
      "inputs": [
        {
          "internalType": "address",
          "name": "from",
          "type": "address"
        },
        {
          "internalType": "uint256",
          "name": "amount",
          "type": "uint256"
        }
      ],
      "name": "burnEmployeeTokens",
      "outputs": [],
      "stateMutability": "nonpayable",
      "type": "function"
    },
    {
      "inputs": [
        {
          "internalType": "address",
          "name": "account",
          "type": "address"
        }
      ],
      "name": "getBalanceOf",
      "outputs": [
        {
          "internalType": "uint256",
          "name": "",
          "type": "uint256"
        }
      ],
      "stateMutability": "view",
      "type": "function"
    },
    {
      "inputs": [],
      "name": "getInternalErc20Address",
      "outputs": [
        {
          "internalType": "address",
          "name": "",
          "type": "address"
        }
      ],
      "stateMutability": "view",
      "type": "function"
    },
    {
      "inputs": [
        {
          "internalType": "address",
          "name": "owner",
          "type": "address"
        }
      ],
      "name": "getNumberOfOwnedOrgErc721",
      "outputs": [
        {
          "internalType": "uint256",
          "name": "",
          "type": "uint256"
        }
      ],
      "stateMutability": "view",
      "type": "function"
    },
    {
      "inputs": [],
      "name": "getOrgErc721Address",
      "outputs": [
        {
          "internalType": "address",
          "name": "",
          "type": "address"
        }
      ],
      "stateMutability": "view",
      "type": "function"
    },
    {
      "inputs": [
        {
          "internalType": "uint256",
          "name": "tokenId",
          "type": "uint256"
        }
      ],
      "name": "getOrgErc721Uri",
      "outputs": [
        {
          "internalType": "string",
          "name": "",
          "type": "string"
        }
      ],
      "stateMutability": "view",
      "type": "function"
    },
    {
      "inputs": [
        {
          "internalType": "uint256",
          "name": "tokenId",
          "type": "uint256"
        }
      ],
      "name": "getOwnerOfOrgErc721",
      "outputs": [
        {
          "internalType": "address",
          "name": "",
          "type": "address"
        }
      ],
      "stateMutability": "view",
      "type": "function"
    },
    {
      "inputs": [
        {
          "internalType": "uint256",
          "name": "",
          "type": "uint256"
        }
      ],
      "name": "internal_org_erc20_addresses",
      "outputs": [
        {
          "internalType": "address",
          "name": "",
          "type": "address"
        }
      ],
      "stateMutability": "view",
      "type": "function"
    },
    {
      "inputs": [
        {
          "internalType": "address",
          "name": "to",
          "type": "address"
        },
        {
          "internalType": "string",
          "name": "tokenURI",
          "type": "string"
        }
      ],
      "name": "mintErc721",
      "outputs": [],
      "stateMutability": "nonpayable",
      "type": "function"
    },
    {
      "inputs": [
        {
          "internalType": "address",
          "name": "from",
          "type": "address"
        },
        {
          "internalType": "address[]",
          "name": "to_addresses",
          "type": "address[]"
        },
        {
          "internalType": "uint256[]",
          "name": "amounts",
          "type": "uint256[]"
        }
      ],
      "name": "multisendEmployeeTokens",
      "outputs": [
        {
          "internalType": "bool",
          "name": "success",
          "type": "bool"
        }
      ],
      "stateMutability": "nonpayable",
      "type": "function"
    },
    {
      "inputs": [
        {
          "internalType": "uint256",
          "name": "",
          "type": "uint256"
        }
      ],
      "name": "org_erc721_addresses",
      "outputs": [
        {
          "internalType": "address",
          "name": "",
          "type": "address"
        }
      ],
      "stateMutability": "view",
      "type": "function"
    },
    {
      "inputs": [],
      "name": "owner",
      "outputs": [
        {
          "internalType": "address",
          "name": "",
          "type": "address"
        }
      ],
      "stateMutability": "view",
      "type": "function"
    },
    {
      "inputs": [],
      "name": "renounceOwnership",
      "outputs": [],
      "stateMutability": "nonpayable",
      "type": "function"
    },
    {
      "inputs": [
        {
          "internalType": "address",
          "name": "newTokenAddress",
          "type": "address"
        }
      ],
      "name": "setInternalErc20Address",
      "outputs": [
        {
          "internalType": "address",
          "name": "",
          "type": "address"
        }
      ],
      "stateMutability": "nonpayable",
      "type": "function"
    },
    {
      "inputs": [
        {
          "internalType": "address",
          "name": "newTokenAddress",
          "type": "address"
        }
      ],
      "name": "setOrgErc721Address",
      "outputs": [
        {
          "internalType": "address",
          "name": "",
          "type": "address"
        }
      ],
      "stateMutability": "nonpayable",
      "type": "function"
    },
    {
      "inputs": [
        {
          "internalType": "address",
          "name": "newOwner",
          "type": "address"
        }
      ],
      "name": "setOwnershipOfEmployeeTokenContract",
      "outputs": [
        {
          "internalType": "address",
          "name": "",
          "type": "address"
        }
      ],
      "stateMutability": "nonpayable",
      "type": "function"
    },
    {
      "inputs": [
        {
          "internalType": "address",
          "name": "newOwner",
          "type": "address"
        }
      ],
      "name": "setOwnershipOfErc721Contract",
      "outputs": [
        {
          "internalType": "address",
          "name": "",
          "type": "address"
        }
      ],
      "stateMutability": "nonpayable",
      "type": "function"
    },
    {
      "inputs": [
        {
          "internalType": "address",
          "name": "from",
          "type": "address"
        },
        {
          "internalType": "address",
          "name": "to",
          "type": "address"
        },
        {
          "internalType": "uint256",
          "name": "amount",
          "type": "uint256"
        }
      ],
      "name": "transferEmployeeTokens",
      "outputs": [],
      "stateMutability": "nonpayable",
      "type": "function"
    },
    {
      "inputs": [
        {
          "internalType": "address",
          "name": "newOwner",
          "type": "address"
        }
      ],
      "name": "transferOwnership",
      "outputs": [],
      "stateMutability": "nonpayable",
      "type": "function"
    }
  ],
  "bytecode": "0x608060405234801561001057600080fd5b5061002d61002261003260201b60201c565b61003a60201b60201c565b6100fe565b600033905090565b60008060009054906101000a900473ffffffffffffffffffffffffffffffffffffffff169050816000806101000a81548173ffffffffffffffffffffffffffffffffffffffff021916908373ffffffffffffffffffffffffffffffffffffffff1602179055508173ffffffffffffffffffffffffffffffffffffffff168173ffffffffffffffffffffffffffffffffffffffff167f8be0079c531659141344cd1fd0a4f28419497f9722a3daafe3b4186f6b6457e060405160405180910390a35050565b61231c806200010e6000396000f3fe608060405234801561001057600080fd5b50600436106101215760003560e01c8063a6e3f633116100ad578063cfdb698711610071578063cfdb69871461032e578063d27c328f1461035e578063ddf5624f1461038e578063e82f1fdc146103be578063f2fde38b146103ee57610121565b8063a6e3f63314610264578063a8867cc914610280578063c2ddad20146102b0578063c99f043c146102ce578063ca05d9aa146102fe57610121565b80637bf29daa116100f45780637bf29daa146101985780638182df74146101c85780638da5cb5b146101f85780639b96eece14610216578063a6a8dc171461024657610121565b806360d96d45146101265780636271602e14610142578063671ef6bd14610172578063715018a61461018e575b600080fd5b610140600480360381019061013b91906118c4565b61040a565b005b61015c600480360381019061015791906119be565b610525565b6040516101699190611d98565b60405180910390f35b61018c60048036038101906101879190611918565b6105c3565b005b61019661072f565b005b6101b260048036038101906101ad91906119be565b6107b7565b6040516101bf9190611d98565b60405180910390f35b6101e260048036038101906101dd91906117a4565b6107f6565b6040516101ef9190611d98565b60405180910390f35b6102006108f4565b60405161020d9190611d98565b60405180910390f35b610230600480360381019061022b91906117a4565b61091d565b60405161023d9190611f85565b60405180910390f35b61024e6109bb565b60405161025b9190611d98565b60405180910390f35b61027e600480360381019061027991906117f6565b610a38565b005b61029a600480360381019061029591906117a4565b610ba7565b6040516102a79190611d98565b60405180910390f35b6102b8610ca5565b6040516102c59190611d98565b60405180910390f35b6102e860048036038101906102e39190611845565b610d20565b6040516102f59190611e88565b60405180910390f35b610318600480360381019061031391906117a4565b611000565b6040516103259190611f85565b60405180910390f35b610348600480360381019061034391906119be565b61109e565b6040516103559190611ea3565b60405180910390f35b610378600480360381019061037391906117a4565b611142565b6040516103859190611d98565b60405180910390f35b6103a860048036038101906103a391906119be565b61122b565b6040516103b59190611d98565b60405180910390f35b6103d860048036038101906103d391906117a4565b61126a565b6040516103e59190611d98565b60405180910390f35b610408600480360381019061040391906117a4565b611353565b005b61041261144b565b73ffffffffffffffffffffffffffffffffffffffff166104306108f4565b73ffffffffffffffffffffffffffffffffffffffff1614610486576040517f08c379a000000000000000000000000000000000000000000000000000000000815260040161047d90611f25565b60405180910390fd5b60006104906109bb565b90508073ffffffffffffffffffffffffffffffffffffffff1663833c532984846040518363ffffffff1660e01b81526004016104cd929190611e2f565b602060405180830381600087803b1580156104e757600080fd5b505af11580156104fb573d6000803e3d6000fd5b505050506040513d601f19601f8201168201806040525081019061051f91906119e7565b50505050565b6000806105306109bb565b90508073ffffffffffffffffffffffffffffffffffffffff16636352211e846040518263ffffffff1660e01b815260040161056b9190611f85565b60206040518083038186803b15801561058357600080fd5b505afa158015610597573d6000803e3d6000fd5b505050506040513d601f19601f820116820180604052508101906105bb91906117cd565b915050919050565b3373ffffffffffffffffffffffffffffffffffffffff168273ffffffffffffffffffffffffffffffffffffffff16148061062f57506106006108f4565b73ffffffffffffffffffffffffffffffffffffffff163373ffffffffffffffffffffffffffffffffffffffff16145b61066e576040517f08c379a000000000000000000000000000000000000000000000000000000000815260040161066590611f45565b60405180910390fd5b600081116106b1576040517f08c379a00000000000000000000000000000000000000000000000000000000081526004016106a890611f05565b60405180910390fd5b60006106bb610ca5565b90508073ffffffffffffffffffffffffffffffffffffffff16639dc29fac84846040518363ffffffff1660e01b81526004016106f8929190611e5f565b600060405180830381600087803b15801561071257600080fd5b505af1158015610726573d6000803e3d6000fd5b50505050505050565b61073761144b565b73ffffffffffffffffffffffffffffffffffffffff166107556108f4565b73ffffffffffffffffffffffffffffffffffffffff16146107ab576040517f08c379a00000000000000000000000000000000000000000000000000000000081526004016107a290611f25565b60405180910390fd5b6107b56000611453565b565b600281815481106107c757600080fd5b906000526020600020016000915054906101000a900473ffffffffffffffffffffffffffffffffffffffff1681565b600061080061144b565b73ffffffffffffffffffffffffffffffffffffffff1661081e6108f4565b73ffffffffffffffffffffffffffffffffffffffff1614610874576040517f08c379a000000000000000000000000000000000000000000000000000000000815260040161086b90611f25565b60405180910390fd5b600061087e6109bb565b90508073ffffffffffffffffffffffffffffffffffffffff1663f2fde38b846040518263ffffffff1660e01b81526004016108b99190611d98565b600060405180830381600087803b1580156108d357600080fd5b505af11580156108e7573d6000803e3d6000fd5b5050505082915050919050565b60008060009054906101000a900473ffffffffffffffffffffffffffffffffffffffff16905090565b600080610928610ca5565b90508073ffffffffffffffffffffffffffffffffffffffff166370a08231846040518263ffffffff1660e01b81526004016109639190611d98565b60206040518083038186803b15801561097b57600080fd5b505afa15801561098f573d6000803e3d6000fd5b505050506040513d601f19601f820116820180604052508101906109b391906119e7565b915050919050565b6000600260016002805490506109d1919061213d565b81548110610a08577f4e487b7100000000000000000000000000000000000000000000000000000000600052603260045260246000fd5b9060005260206000200160009054906101000a900473ffffffffffffffffffffffffffffffffffffffff16905090565b3373ffffffffffffffffffffffffffffffffffffffff168373ffffffffffffffffffffffffffffffffffffffff161480610aa45750610a756108f4565b73ffffffffffffffffffffffffffffffffffffffff163373ffffffffffffffffffffffffffffffffffffffff16145b610ae3576040517f08c379a0000000000000000000000000000000000000000000000000000000008152600401610ada90611f45565b60405180910390fd5b60008111610b26576040517f08c379a0000000000000000000000000000000000000000000000000000000008152600401610b1d90611f05565b60405180910390fd5b6000610b30610ca5565b90508073ffffffffffffffffffffffffffffffffffffffff1663beabacc88585856040518463ffffffff1660e01b8152600401610b6f93929190611db3565b600060405180830381600087803b158015610b8957600080fd5b505af1158015610b9d573d6000803e3d6000fd5b5050505050505050565b6000610bb161144b565b73ffffffffffffffffffffffffffffffffffffffff16610bcf6108f4565b73ffffffffffffffffffffffffffffffffffffffff1614610c25576040517f08c379a0000000000000000000000000000000000000000000000000000000008152600401610c1c90611f25565b60405180910390fd5b6000610c2f610ca5565b90508073ffffffffffffffffffffffffffffffffffffffff1663f2fde38b846040518263ffffffff1660e01b8152600401610c6a9190611d98565b600060405180830381600087803b158015610c8457600080fd5b505af1158015610c98573d6000803e3d6000fd5b5050505082915050919050565b60006001808080549050610cb9919061213d565b81548110610cf0577f4e487b7100000000000000000000000000000000000000000000000000000000600052603260045260246000fd5b9060005260206000200160009054906101000a900473ffffffffffffffffffffffffffffffffffffffff16905090565b60003373ffffffffffffffffffffffffffffffffffffffff168473ffffffffffffffffffffffffffffffffffffffff161480610d8e5750610d5f6108f4565b73ffffffffffffffffffffffffffffffffffffffff163373ffffffffffffffffffffffffffffffffffffffff16145b610dcd576040517f08c379a0000000000000000000000000000000000000000000000000000000008152600401610dc490611f45565b60405180910390fd5b6000805b84518160ff161015610e4857610e33848260ff1681518110610e1c577f4e487b7100000000000000000000000000000000000000000000000000000000600052603260045260246000fd5b60200260200101518361151790919063ffffffff16565b91508080610e4090612208565b915050610dd1565b506000610e53610ca5565b905060008211610e98576040517f08c379a0000000000000000000000000000000000000000000000000000000008152600401610e8f90611ee5565b60405180910390fd5b8073ffffffffffffffffffffffffffffffffffffffff166370a08231876040518263ffffffff1660e01b8152600401610ed19190611d98565b60206040518083038186803b158015610ee957600080fd5b505afa158015610efd573d6000803e3d6000fd5b505050506040513d601f19601f82011682018060405250810190610f2191906119e7565b821115610f63576040517f08c379a0000000000000000000000000000000000000000000000000000000008152600401610f5a90611f65565b60405180910390fd5b8073ffffffffffffffffffffffffffffffffffffffff1663ad8733ca8787876040518463ffffffff1660e01b8152600401610fa093929190611dea565b602060405180830381600087803b158015610fba57600080fd5b505af1158015610fce573d6000803e3d6000fd5b505050506040513d601f19601f82011682018060405250810190610ff29190611954565b506001925050509392505050565b60008061100b6109bb565b90508073ffffffffffffffffffffffffffffffffffffffff166370a08231846040518263ffffffff1660e01b81526004016110469190611d98565b60206040518083038186803b15801561105e57600080fd5b505afa158015611072573d6000803e3d6000fd5b505050506040513d601f19601f8201168201806040525081019061109691906119e7565b915050919050565b606060006110aa6109bb565b90508073ffffffffffffffffffffffffffffffffffffffff1663c87b56dd846040518263ffffffff1660e01b81526004016110e59190611f85565b60006040518083038186803b1580156110fd57600080fd5b505afa158015611111573d6000803e3d6000fd5b505050506040513d6000823e3d601f19601f8201168201806040525081019061113a919061197d565b915050919050565b600061114c61144b565b73ffffffffffffffffffffffffffffffffffffffff1661116a6108f4565b73ffffffffffffffffffffffffffffffffffffffff16146111c0576040517f08c379a00000000000000000000000000000000000000000000000000000000081526004016111b790611f25565b60405180910390fd5b6001829080600181540180825580915050600190039060005260206000200160009091909190916101000a81548173ffffffffffffffffffffffffffffffffffffffff021916908373ffffffffffffffffffffffffffffffffffffffff160217905550819050919050565b6001818154811061123b57600080fd5b906000526020600020016000915054906101000a900473ffffffffffffffffffffffffffffffffffffffff1681565b600061127461144b565b73ffffffffffffffffffffffffffffffffffffffff166112926108f4565b73ffffffffffffffffffffffffffffffffffffffff16146112e8576040517f08c379a00000000000000000000000000000000000000000000000000000000081526004016112df90611f25565b60405180910390fd5b6002829080600181540180825580915050600190039060005260206000200160009091909190916101000a81548173ffffffffffffffffffffffffffffffffffffffff021916908373ffffffffffffffffffffffffffffffffffffffff160217905550819050919050565b61135b61144b565b73ffffffffffffffffffffffffffffffffffffffff166113796108f4565b73ffffffffffffffffffffffffffffffffffffffff16146113cf576040517f08c379a00000000000000000000000000000000000000000000000000000000081526004016113c690611f25565b60405180910390fd5b600073ffffffffffffffffffffffffffffffffffffffff168173ffffffffffffffffffffffffffffffffffffffff16141561143f576040517f08c379a000000000000000000000000000000000000000000000000000000000815260040161143690611ec5565b60405180910390fd5b61144881611453565b50565b600033905090565b60008060009054906101000a900473ffffffffffffffffffffffffffffffffffffffff169050816000806101000a81548173ffffffffffffffffffffffffffffffffffffffff021916908373ffffffffffffffffffffffffffffffffffffffff1602179055508173ffffffffffffffffffffffffffffffffffffffff168173ffffffffffffffffffffffffffffffffffffffff167f8be0079c531659141344cd1fd0a4f28419497f9722a3daafe3b4186f6b6457e060405160405180910390a35050565b600080828461152691906120e7565b90508381101561153557600080fd5b8091505092915050565b600061155261154d84611fd1565b611fa0565b9050808382526020820190508285602086028201111561157157600080fd5b60005b858110156115a157816115878882611693565b845260208401935060208301925050600181019050611574565b5050509392505050565b60006115be6115b984611ffd565b611fa0565b905080838252602082019050828560208602820111156115dd57600080fd5b60005b8581101561160d57816115f3888261177a565b8452602084019350602083019250506001810190506115e0565b5050509392505050565b600061162a61162584612029565b611fa0565b90508281526020810184848401111561164257600080fd5b61164d8482856121c6565b509392505050565b600061166861166384612029565b611fa0565b90508281526020810184848401111561168057600080fd5b61168b8482856121d5565b509392505050565b6000813590506116a2816122a1565b92915050565b6000815190506116b7816122a1565b92915050565b600082601f8301126116ce57600080fd5b81356116de84826020860161153f565b91505092915050565b600082601f8301126116f857600080fd5b81356117088482602086016115ab565b91505092915050565b600081519050611720816122b8565b92915050565b600082601f83011261173757600080fd5b8135611747848260208601611617565b91505092915050565b600082601f83011261176157600080fd5b8151611771848260208601611655565b91505092915050565b600081359050611789816122cf565b92915050565b60008151905061179e816122cf565b92915050565b6000602082840312156117b657600080fd5b60006117c484828501611693565b91505092915050565b6000602082840312156117df57600080fd5b60006117ed848285016116a8565b91505092915050565b60008060006060848603121561180b57600080fd5b600061181986828701611693565b935050602061182a86828701611693565b925050604061183b8682870161177a565b9150509250925092565b60008060006060848603121561185a57600080fd5b600061186886828701611693565b935050602084013567ffffffffffffffff81111561188557600080fd5b611891868287016116bd565b925050604084013567ffffffffffffffff8111156118ae57600080fd5b6118ba868287016116e7565b9150509250925092565b600080604083850312156118d757600080fd5b60006118e585828601611693565b925050602083013567ffffffffffffffff81111561190257600080fd5b61190e85828601611726565b9150509250929050565b6000806040838503121561192b57600080fd5b600061193985828601611693565b925050602061194a8582860161177a565b9150509250929050565b60006020828403121561196657600080fd5b600061197484828501611711565b91505092915050565b60006020828403121561198f57600080fd5b600082015167ffffffffffffffff8111156119a957600080fd5b6119b584828501611750565b91505092915050565b6000602082840312156119d057600080fd5b60006119de8482850161177a565b91505092915050565b6000602082840312156119f957600080fd5b6000611a078482850161178f565b91505092915050565b6000611a1c8383611a40565b60208301905092915050565b6000611a348383611d7a565b60208301905092915050565b611a4981612171565b82525050565b611a5881612171565b82525050565b6000611a6982612079565b611a7381856120b4565b9350611a7e83612059565b8060005b83811015611aaf578151611a968882611a10565b9750611aa18361209a565b925050600181019050611a82565b5085935050505092915050565b6000611ac782612084565b611ad181856120c5565b9350611adc83612069565b8060005b83811015611b0d578151611af48882611a28565b9750611aff836120a7565b925050600181019050611ae0565b5085935050505092915050565b611b2381612183565b82525050565b6000611b348261208f565b611b3e81856120d6565b9350611b4e8185602086016121d5565b611b5781612290565b840191505092915050565b6000611b6f6026836120d6565b91507f4f776e61626c653a206e6577206f776e657220697320746865207a65726f206160008301527f64647265737300000000000000000000000000000000000000000000000000006020830152604082019050919050565b6000611bd5602d836120d6565b91507f546f74616c206d756c746973656e6420616d6f756e74206d757374206265206760008301527f726561746572207468616e2030000000000000000000000000000000000000006020830152604082019050919050565b6000611c3b601d836120d6565b91507f416d6f756e74206d7573742062652067726561746572207468616e20300000006000830152602082019050919050565b6000611c7b6020836120d6565b91507f4f776e61626c653a2063616c6c6572206973206e6f7420746865206f776e65726000830152602082019050919050565b6000611cbb6021836120d6565b91507f596f752063616e206f6e6c792073656e6420796f7572206f776e20746f6b656e60008301527f73000000000000000000000000000000000000000000000000000000000000006020830152604082019050919050565b6000611d21603a836120d6565b91507f546f74616c206d756c746973656e6420616d6f756e742069732067726561746560008301527f72207468616e206f776e657220746f6b656e2062616c616e63650000000000006020830152604082019050919050565b611d83816121af565b82525050565b611d92816121af565b82525050565b6000602082019050611dad6000830184611a4f565b92915050565b6000606082019050611dc86000830186611a4f565b611dd56020830185611a4f565b611de26040830184611d89565b949350505050565b6000606082019050611dff6000830186611a4f565b8181036020830152611e118185611a5e565b90508181036040830152611e258184611abc565b9050949350505050565b6000604082019050611e446000830185611a4f565b8181036020830152611e568184611b29565b90509392505050565b6000604082019050611e746000830185611a4f565b611e816020830184611d89565b9392505050565b6000602082019050611e9d6000830184611b1a565b92915050565b60006020820190508181036000830152611ebd8184611b29565b905092915050565b60006020820190508181036000830152611ede81611b62565b9050919050565b60006020820190508181036000830152611efe81611bc8565b9050919050565b60006020820190508181036000830152611f1e81611c2e565b9050919050565b60006020820190508181036000830152611f3e81611c6e565b9050919050565b60006020820190508181036000830152611f5e81611cae565b9050919050565b60006020820190508181036000830152611f7e81611d14565b9050919050565b6000602082019050611f9a6000830184611d89565b92915050565b6000604051905081810181811067ffffffffffffffff82111715611fc757611fc6612261565b5b8060405250919050565b600067ffffffffffffffff821115611fec57611feb612261565b5b602082029050602081019050919050565b600067ffffffffffffffff82111561201857612017612261565b5b602082029050602081019050919050565b600067ffffffffffffffff82111561204457612043612261565b5b601f19601f8301169050602081019050919050565b6000819050602082019050919050565b6000819050602082019050919050565b600081519050919050565b600081519050919050565b600081519050919050565b6000602082019050919050565b6000602082019050919050565b600082825260208201905092915050565b600082825260208201905092915050565b600082825260208201905092915050565b60006120f2826121af565b91506120fd836121af565b9250827fffffffffffffffffffffffffffffffffffffffffffffffffffffffffffffffff0382111561213257612131612232565b5b828201905092915050565b6000612148826121af565b9150612153836121af565b92508282101561216657612165612232565b5b828203905092915050565b600061217c8261218f565b9050919050565b60008115159050919050565b600073ffffffffffffffffffffffffffffffffffffffff82169050919050565b6000819050919050565b600060ff82169050919050565b82818337600083830152505050565b60005b838110156121f35780820151818401526020810190506121d8565b83811115612202576000848401525b50505050565b6000612213826121b9565b915060ff82141561222757612226612232565b5b600182019050919050565b7f4e487b7100000000000000000000000000000000000000000000000000000000600052601160045260246000fd5b7f4e487b7100000000000000000000000000000000000000000000000000000000600052604160045260246000fd5b6000601f19601f8301169050919050565b6122aa81612171565b81146122b557600080fd5b50565b6122c181612183565b81146122cc57600080fd5b50565b6122d8816121af565b81146122e357600080fd5b5056fea264697066735822122046806e9a9c3c5562ca072222e533e253aba15b2ae0b1a3196c575d0b71cda2e464736f6c63430008000033",
  "linkReferences": {},
  "deployedLinkReferences": {}
}